:020000040800F2
:1000000000000220215A0008715A0008715A0008A5
:10001000715A0008715A0008715A00080000000067
:10002000000000000000000000000000715A0008FD
:10003000715A000800000000715A0008734F000850
:10004000715A0008715A0008715A0008715A000864
:10005000715A0008715A0008E5570008EB5700086C
:10006000F1570008F7570008FD570008715A0008BB
:10007000715A0008715A0008715A0008715A000834
:10008000715A0008715A0008715A000800000000F7
:1000900000000000000000000000000003580008FD
:1000A000C15D0008395D0008D55D00085D5D000890
:1000B000715D0008855D0008995D000879180008E9
:1000C00085180008911800089D180008715A00084A
:1000D000715A0008FD56000815570008000000007E
:1000E000195800080D520008656A00080000000059
:1000F000000000000000000000000000715A00082D
:1001000000000000715A0008AD5D0008715A000837
:1001100000000000000000000000000000000000DF
:10012000715A0008715A0008715A0008715A000883
:10013000715A0008000000000000000000000000EC
:10014000000000000000000000000000596A0008E4
:10015000715A0008715A0008715A00082D5700089A
:10016000A9180008B51800080000000000000000F1
:10017000000000000000000000000000000000007F
:1001800000000000715A000800000000000000009C
:08019000715A0008715A0008C1
:10019800034613F8012B002AFBD1181A01387047BF
:1001A800000000000000000001F0FF01102A2BDB16
:1001B80010F0070F08D010F8013B013A8B422DD000
:1001C80010F0070F42B3F6D1F0B441EA012141EA39
:1001D800014122F007047FF000070023F0E80256EF
:1001E800083C85EA010586EA010685FA47F5A3FA7F
:1001F80087F586FA47F6A5FA87F68EB9EED1F0BCF0
:1002080001F0FF0102F0070232B110F8013B013A98
:1002180083EA010313B1F8D1002070470138704711
:10022800002D06BF35460338073815F0010F07D1F2
:10023800013015F4807F02BF013015F4C03F013052
:10024800F0BC0138704700BF81F0004102E000BFF8
:1002580083F0004330B54FEA41044FEA430594EA7E
:10026800050F08BF90EA020F1FBF54EA000C55EAB9
:10027800020C7FEA645C7FEA655C00F0E2804FEA8A
:100288005454D4EB5555B8BF6D420CDD2C4480EA6C
:10029800020281EA030382EA000083EA010180EA9C
:1002A800020281EA0303362D88BF30BD11F0004FEA
:1002B8004FEA01314FF4801C4CEA113102D0404220
:1002C80061EB410113F0004F4FEA03334CEA13335B
:1002D80002D0524263EB430394EA050F00F0A78073
:1002E800A4F10104D5F1200E0DDB02FA0EFC22FA6E
:1002F80005F2801841F1000103FA0EF2801843FA62
:1003080005F359410EE0A5F120050EF1200E012A52
:1003180003FA0EFC28BF4CF0020C43FA05F3C01890
:1003280051EBE37101F0004507D54FF0000EDCF109
:10033800000C7EEB00006EEB0101B1F5801F1BD3B2
:10034800B1F5001F0CD349085FEA30004FEA3C0CB6
:1003580004F101044FEA445212F5800F80F09A80AC
:10036800BCF1004F08BF5FEA500C50F1000041EBB0
:10037800045141EA050130BD5FEA4C0C404141EBB4
:100388000101013C28BFB1F5801FE9D291F0000FAF
:1003980004BF01460020B1FA81F308BF2033A3F15E
:1003A8000B03B3F120020CDA0C3208DD02F1140C55
:1003B800C2F10C0201FA0CF021FA02F10CE002F190
:1003C8001402D8BFC2F1200C01FA02F120FA0CFC89
:1003D800DCBF41EA0C019040E41AA2BF01EB0451D2
:1003E800294330BD6FEA04041F3C1CDA0C340EDCD0
:1003F80004F11404C4F1200220FA04F001FA02F313
:1004080040EA030021FA04F345EA030130BDC4F1D0
:100418000C04C4F1200220FA02F001FA04F340EAC5
:100428000300294630BD21FA04F0294630BD94F076
:10043800000F83F4801306BF81F480110134013D5D
:100448004EE77FEA645C18BF7FEA655C29D094EACE
:10045800050F08BF90EA020F05D054EA000C04BF4C
:100468001946104630BD91EA030F1EBF0021002037
:1004780030BD5FEA545C05D14000494128BF41F0D6
:10048800004130BD14F580043CBF01F5801130BD3A
:1004980001F0004545F0FE4141F470014FF00000C5
:1004A80030BD7FEA645C1ABF194610467FEA655C76
:1004B8001CBF0B46024650EA013406BF52EA033518
:1004C80091EA030F41F4002130BD00BF90F0000F06
:1004D80004BF0021704730B54FF4806404F1320442
:1004E8004FF000054FF0000150E700BF90F0000FFB
:1004F80004BF0021704730B54FF4806404F1320422
:1005080010F0004548BF40424FF000013EE700BFF1
:1005180042004FEAE2014FEA31014FEA02701FBF81
:1005280012F07F4393F07F4F81F06051704732F0B3
:100538007F4208BF704793F07F4F04BF41F400210A
:10054800704730B54FF4607401F0004521F0004168
:100558001CE700BF50EA010208BF704730B54FF0F2
:1005680000050AE050EA010208BF704730B511F0F3
:10057800004502D5404261EB41014FF4806404F12B
:1005880032045FEA915C3FF4D8AE4FF003025FEAB1
:10059800DC0C18BF03325FEADC0C18BF033202EB35
:1005A800DC02C2F1200300FA03FC20FA02F001FA8F
:1005B80003FE40EA0E0021FA02F11444BDE600BF32
:1005C80070B54FF0FF0C4CF4E06C1CEA11541DBFE1
:1005D8001CEA135594EA0C0F95EA0C0F00F0DEF8AC
:1005E8002C4481EA030621EA4C5123EA4C5350EA91
:1005F800013518BF52EA033541F4801143F48013E2
:1006080038D0A0FB02CE4FF00005E1FB02E506F072
:100618000042E0FB03E54FF00006E1FB03569CF0C7
:10062800000F18BF4EF0010EA4F1FF04B6F5007FCD
:1006380064F5407404D25FEA4E0E6D4146EB06063F
:1006480042EAC62141EA55514FEAC52040EA5E50C8
:100658004FEACE2EB4F1FD0C88BFBCF5E06F1ED872
:10066800BEF1004F08BF5FEA500E50F1000041EBA9
:10067800045170BD06F0004646EA010140EA020056
:1006880081EA0301B4EB5C04C2BFD4EB0C0541EA78
:10069800045170BD41F480114FF0000E013C00F38D
:1006A800AB8014F1360FDEBF002001F0004170BDB1
:1006B800C4F10004203C35DA0C341BDC04F11404CA
:1006C800C4F1200500FA05F320FA04F001FA05F256
:1006D80040EA020001F0004221F0004110EBD37023
:1006E80021FA04F642EB06015EEA430E08BF20EA4F
:1006F800D37070BDC4F10C04C4F1200500FA04F3F2
:1007080020FA05F001FA04F240EA020001F0004183
:1007180010EBD37041F100015EEA430E08BF20EAF6
:10072800D37070BDC4F1200500FA05F24EEA020E3E
:1007380020FA04F301FA05F243EA020321FA04F06D
:1007480001F0004121FA04F220EA020000EBD37024
:100758005EEA430E08BF20EAD37070BD94F0000F24
:100768000FD101F00046400041EB010111F4801F58
:1007780008BF013CF7D041EA060195F0000F18BF09
:10078800704703F00046520043EB030313F4801F45
:1007980008BF013DF7D043EA0603704794EA0C0FFF
:1007A8000CEA135518BF95EA0C0F0CD050EA410615
:1007B80018BF52EA4306D1D181EA030101F0004192
:1007C8004FF0000070BD50EA410606BF10461946BA
:1007D80052EA430619D094EA0C0F02D150EA0136C6
:1007E80013D195EA0C0F05D152EA03361CBF104607
:1007F80019460AD181EA030101F0004141F0FE41A6
:1008080041F470014FF0000070BD41F0FE4141F429
:10081800780170BD70B54FF0FF0C4CF4E06C1CEA29
:1008280011541DBF1CEA135594EA0C0F95EA0C0FDE
:1008380000F0A7F8A4EB050481EA030E52EA033599
:100848004FEA013100F088804FEA03334FF08055BA
:1008580045EA131343EA12634FEA022245EA1115E7
:1008680045EA10654FEA00260EF000419D4208BF98
:10087800964244F1FD0404F5407402D25B084FEA45
:100888003202B61A65EB03055B084FEA32024FF4F1
:1008980080104FF4002CB6EB020E75EB030E22BF4E
:1008A800B61A754640EA0C005B084FEA3202B6EB0E
:1008B800020E75EB030E22BFB61A754640EA5C00BD
:1008C8005B084FEA3202B6EB020E75EB030E22BF4D
:1008D800B61A754640EA9C005B084FEA3202B6EB4E
:1008E800020E75EB030E22BFB61A754640EADC000D
:1008F80055EA060E18D04FEA051545EA16754FEA6F
:1009080006164FEAC30343EA52734FEAC2025FEA8C
:100918001C1CC0D111F4801F0BD141EA00014FF01B
:1009280000004FF0004CB6E711F4801F04BF0143EC
:100938000020B4F1FD0C88BFBCF5E06F3FF6AFAE08
:10094800B5EB030C04BFB6EB020C5FEA500C50F198
:10095800000041EB045170BD0EF0004E4EEA11311B
:1009680014EB5C04C2BFD4EB0C0541EA045170BD22
:1009780041F480114FF0000E013C90E645EA060E66
:100988008DE60CEA135594EA0C0F08BF95EA0C0F94
:100998003FF43BAF94EA0C0F0AD150EA01347FF4DC
:1009A80034AF95EA0C0F7FF425AF104619462CE7B3
:1009B80095EA0C0F06D152EA03353FF4FDAE104616
:1009C800194622E750EA410618BF52EA43067FF467
:1009D800C5AE50EA41047FF40DAF52EA43057FF4F7
:1009E800EBAE12E74FF0FF3C06E000BF4FF0010C02
:1009F80002E000BF4FF0010C4DF804CD4FEA410C66
:100A08007FEA6C5C4FEA430C18BF7FEA6C5C1BD032
:100A180001B050EA410C0CBF52EA430C91EA030FB3
:100A280002BF90EA020F0020704710F1000F91EA10
:100A3800030F58BF994208BF90422CBFD8176FEADE
:100A4800E37040F0010070474FEA410C7FEA6C5CAC
:100A580002D150EA013C07D14FEA430C7FEA6C5CB3
:100A6800D6D152EA033CD3D05DF8040B704700BFDF
:100A78008446104662468C461946634600E000BF2D
:100A880001B5FFF7B7FF002848BF10F1000F01BDFF
:100A98004DF808EDFFF7F4FF0CBF012000205DF8CA
:100AA80008FB00BF4DF808EDFFF7EAFF34BF01204F
:100AB80000205DF808FB00BF4DF808EDFFF7E0FFE8
:100AC80094BF012000205DF808FB00BF4DF808ED39
:100AD800FFF7CEFF94BF012000205DF808FB00BFA0
:100AE8004DF808EDFFF7C4FF34BF012000205DF882
:100AF80008FB00BF4FEA410C7FEA6C5C02D150EA68
:100B0800013C0AD14FEA430C7FEA6C5C02D152EAFD
:100B1800033C02D14FF0000070474FF001007047CE
:100B28004FEA410212F5001215D211D56FF478730D
:100B3800B3EB625212D94FEAC12343F0004343EAB0
:100B4800505311F0004F23FA02F018BF404270478B
:100B58004FF00000704750EA013005D111F0004015
:100B680008BF6FF0004070474FF00000704700BFAB
:100B780053B94AB9002908BF00281CBF4FF0FF31FC
:100B88004FF0FF3000F00CB8ADF1080C6DE904CE61
:100B980008F0D4FEDDF804E0DDE9022304B0704774
:100BA800704700BF10B5054C237833B9044B13B117
:100BB8000448AFF300800123237010BD78030020A0
:100BC80000000000A49C000808B5034B1BB10349B2
:100BD8000348AFF3008008BD000000007C0300203C
:100BE800A49C00080368C9B21B68184770B590F840
:100BF8002130102B04460E46154601D833B18AB968
:100C0800E06900F003FC002384F8213094F82010F8
:100C1800E06900F024FB002DE06914BF40210021A9
:100C2800FFF7E0FFE069036831461B689847022D2B
:100C380005D194F82130013384F8213070BDE06982
:100C480000F0E4FB0023F7E738B51548154C164DBE
:100C5800002100F0FDFA1549114800F0FDFA3C2387
:100C680020461349238400F0DDFE1249204600F097
:100C78004DFE02232046637600F0BEFE0E49204654
:100C880005F026F92946204605F022F90B492046A9
:100C980005F01EF929462046BDE8384005F018B988
:100CA8004C05002024050020E0A80008801A060052
:100CB800E09E0008F89C0008C09C0008CA9C000838
:100CC80070B50D4C002206460D462046114600F030
:100CD80039FE0A49204605F0FBF83146204605F062
:100CE800F7F80749204605F0F3F829462046BDE8FD
:100CF800704005F0EDB800BF24050020C09C000836
:100D0800CA9C000808B50221252004F0BFFE022174
:100D1800262004F0BBFE0221272004F0B7FE0221A2
:100D2800282004F0B3FEBDE808400221292004F081
:100D3800ADBE000008B5FFF7E5FFFFF785FF0548E2
:100D4800002100F085FABDE808400348002100F0C2
:100D58007FBA00BF9C0300205C04002008B51A225B
:100D680013210A4800F00CFA08220948142100F05F
:100D780007FA084B00225A601A825A614FF48072AF
:100D88001A83054A1A60054ADA6108BD9C030020E7
:100D98005C04002024050020EC9C00084C05002081
:100DA80038B50E4D3621284600F061FA0C21284648
:100DB800FFF718FF284600F029FB022236212846B3
:100DC80000F01FFB284600F041F9000200F47F44C0
:100DD800284600F03BF9204480B238BD9C0300202F
:100DE80038B50E4D3621284600F041FA0C21284628
:100DF800FFF7F8FE284600F009FB022236212846B4
:100E080000F0FFFA284600F021F9000200F47F44C0
:100E1800284600F01BF9204480B238BD5C0400204D
:100E280070B5364D364C002325202B60236004F026
:100E380087FE08B901232B60262004F081FE10B933
:100E48004FF0FF332B60272004F07AFE08B9012306
:100E58002360282004F074FE10B94FF0FF3323609C
:100E68002B683BB1274A11680B4413F5006F39DA38
:100E7800254B136023683BB1244A11680B4413F5D2
:100E8800006F35DA204B1360292004F059FE40BB6F
:100E9800FFF786FF0446FFF783FF40F6CE76B042A1
:100EA80094BF00230123312C8CBF1C4643F001045E
:100EB800FFF796FF0546FFF793FFB04294BF002364
:100EC8000123312D98BF43F0010353B14CB1FFF713
:100ED80067FF0C4B40421860FFF782FF0B4B404204
:100EE800186070BDB3F5006FC8BF4FF40063C0E76A
:100EF800B3F5006FC8BF4FF40063C4E79403002044
:100F0800980300202005002000F8FFFF1C050020A2
:100F180010B52DED048B88B00023CDE90233CDE95F
:100F28000533ADF81030ADF81C30FFF739FF3E4BF4
:100F3800DFED3E6A1B68DFED3E8A9FED3E8A3E4943
:100F48003E4C184407EE900AB8EEE77AB0EE669A7F
:100F5800C7EE267A02A867EEA87AF5EEC07AF1EE17
:100F680010FA48BF77EEA87AFDEEE76AB8EEE67A9F
:100F780016EE902A37EEC77A27EE087ABDEEC76AD2
:100F8800F8EEC67A16EE103A37EE677A27EE087A48
:100F9800BDEEC77A8DED007A07F06EF9FFF720FFF6
:100FA800274B25491B68184407EE900AF8EEE77AA4
:100FB80005A887EE897A67EE287AF5EEC07AF1EE11
:100FC80010FA48BF77EEA87ABDEEE77AF8EEC76A5E
:100FD80017EE102A77EEE67A67EE887AFDEEE76A72
:100FE800B8EEE66A16EE903A77EEC67A67EE887A39
:100FF800FDEEE77ACDED007A07F03EF90A2004F01D
:10100800D1FD05A902A8FFF75BFE04F0C9FD23681E
:10101800C01AC82804D9FFF703FF04F0C1FD2060F7
:1010280008B0BDEC048B10BD2005002000F07F4502
:101038000000B44300007042D59C00084805002019
:101048001C050020827D407D101A7047437D827DFB
:101058009A4285BF0269D25C4FF0FF32013388BFE4
:10106800437510467047827D437D9A4286BF026968
:10107800D05C4FF0FF307047836DD3F8B8201AB1B9
:10108800002159779977104770470000202938B513
:1010980038BF2021054680690C4607F0D5F810B105
:1010A800A8612C7738BD21460248BDE8384004F0D5
:1010B800AFB800BF019F000813B5C37F8DF80710B4
:1010C8000446BBB1817F037F0131994201D9FFF703
:1010D800DDFFA06918B90123636002B010BD637F0A
:1010E8009DF80720C254637F0133DBB26377A3778F
:1010F8000120F2E701220DF10701243000F0AEFAD9
:10110800B0FA80F04009E8E770B5C37F04460E46A0
:101118001546CBB1837F9918037F994201D9FFF710
:10112800B5FFA36923B9012262601D46284670BD38
:10113800607F2A461844314606F042FB637F2B4401
:10114800DBB26377A377F1E792B2243000F086FA36
:10115800002818BF0025E9E700214FF47A72C0E99A
:101168000112054A0260054AD18DA0F88010928DBF
:10117800A0F88220704700BF789F0008C4A3000829
:101188004FF47A734FF0000CC0E901C32329134BC5
:1011980003600CD8124B33F91130A0F88030232AA1
:1011A80010D80F4B33F91230A0F882307047253928
:1011B800CBB2092B03D80B4B53F82110EAE74FF0B9
:1011C800FF33EAE7253AD3B2092B03D8054B53F886
:1011D8002220E6E74FF0FF33E6E700BF789F0008DC
:1011E800C4A300089CA30008002313B5C0E9043376
:1011F800C0E90633C0F8B8304B00DBB2044680F8CB
:101208002030C067A1F133004142414184F8B61053
:1012180004F1240084F8B7200A4901904FF4804271
:1012280000F00EF994F8B63001984BB9064900F071
:10123800C3FA0649019802B0BDE8104000F0B5BAFB
:1012480002B010BDA086010081100008B912000884
:101258000A463321FFF7C8BF243000F0D7B900236E
:10126800490043774FF48073C175C38370470023E7
:10127800490043774FF48073C175C38370470000FA
:1012880038B5037D8B42054609D2202938BF202175
:1012980000690C4606F0D8FF10B128612C7538BDDE
:1012A80021460248BDE8384003F0B2BF019F00085C
:1012B80070B5846D466ED4F8BC300546EBB1627DDE
:1012C800A37D9A4219D331462046FFF7D9FF2369F7
:1012D80023B90A484FF4CF7103F09AFF20693246C8
:1012E80005F1700106F06CFA00236375A675D4F851
:1012F800BC303046BDE87040184770BD199F0008E3
:10130800836923B1027F0021184606F081BA70472D
:1013180038B50446C9B94FF42A03636594F8B63062
:10132800012B15D1A37FA269E17D04F1240000F00F
:10133800FFF9042828BF042045B22046FFF7E0FF44
:1013480000236377E383E8B238BD4FF02A43E4E72C
:101358000425F8E72DE9F04790F8B6A09DF820603D
:101368009DF82490BAF1010F04460F461546984699
:1013780006D11146FFF784FF23691BB9C4F804A0FE
:1013880000252FE07F00FFB2CEB100236377032E44
:101398004FF48073E775E38328BF0326013EF6B256
:1013A800FF2E08D02368F10028FA01F11B68C9B2A2
:1013B80020469847F2E700212046FFF7A9FFB9F138
:1013C800000F12D14FF42A0363652269ABB2394684
:1013D80004F1240000F056F9002818BF0025002366
:1013E8006375A5752846BDE8F0874FF02A43EBE7FB
:1013F80007B5019300230093FFF7ACFF03B05DF836
:1014080004FB0123D2B2C9B2FFF7F2BF0121FFF7F3
:101418007FBF002110B5044641758175006910B180
:10142800227D06F0F5F900236377A3772046FFF7BE
:1014380067FF10BD0148FFF78FBE00BF4C050020B5
:101448002DE9FF410D4616461F460446002800F0C8
:1014580088806349B0F95C0003F0A6FE61498046C4
:10146800B4F95E0003F0A0FE0146B8F1000F78D091
:10147800002876D0404603F0AFFE2060002870D0E8
:10148800594B984204F104084FF000036CD10193C2
:10149800564B1A6C42F400121A641A6C02F40012C9
:1014A8000192019A1A6A42F400121A621A6A22F424
:1014B80000121A6242F21F03A4F860304C4BC3F8C2
:1014C80000804849B4F95E0003F04EFEB4F95C00B0
:1014D800434903F049FE474823686360854206D9BB
:1014E8004548854203D94548854288BF002041497F
:1014F800A060FF238D428CBF4FF480450025E36137
:1015080094F8933094F960006661C4E903570025A4
:10151800AB420CBF2B464023C4E908352A460221BA
:10152800A56184F8415000F059FC94F9600000F07E
:1015380087FC94F961002A46022100F04FFC94F9D7
:10154800610000F07DFC404600F052FD20B12C48BF
:1015580040F2D52103F05CFE00236366022384F881
:10156800913004B0BDE8F081264A90421AD1029326
:101578001E4B1A6C42F480021A641A6C02F4800240
:101588000292029A1A6A42F480021A621A6A22F4D1
:1015980080021A6242F22123A4F86030144BC3F887
:1015A80004808EE7184A90428BD103930F4B1A6C34
:1015B80042F400021A641A6C02F400020392039ABD
:1015C8001A6A42F400021A621A6A22F400021A62C3
:1015D80044F64813A4F86030054BC3F8088070E758
:1015E80014A10008D8A000080054004000380240A8
:1015F8000C060020A0860100801A060040420F0059
:10160800989F000800580040005C0040104B994229
:1016180010B5044606D90F4B994203D90E4B99428F
:1016280088BF00236068026822F001020260A3609C
:10163800074B99428CBF4FF480410021E160201D87
:1016480000F0D6FC6268136843F00103136010BD14
:10165800A0860100801A060040420F00202A30B5FB
:101668000ED800239CB2A24204D8D2B280F89020AF
:10167800002030BDC418CD5C84F870500133F1E708
:101688000120F6E770B586B0CDE90421054603933D
:1016980000F078FB04350646E86A0090DDE903327D
:1016A8000599284600F076FE044648B1002006B0A9
:1016B80070BD00F067FB841B284601F024FD30B99B
:1016C800284601F01DFD202801D0632CF1D92846B9
:1016D80001F019FD632C07D8820605D4430705D409
:1016E8000028E3D00420E2E70520E0E70320DEE756
:1016F80010B564230446043000F022FD02280AD005
:10170800032801D068B910BD94F84130202B0CBFD4
:1017180002200520F7E794F84130202B18BF062057
:10172800F1E794F84130202B0CBF02200420EAE7AF
:101738007FB50546CDE902211C4600F023FBDDE913
:101748000221064634B90122284604B0BDE870409B
:10175800FFF7CEBF2B6B009304352346284600F0D5
:101768009FFD044648B1002004B070BD00F00AFB9C
:10177800841B284601F0C7FC30B9284601F0C0FC9C
:10178800202801D0632CF1D9284601F0BCFC632C39
:1017980007D8820605D4430705D40028E3D00420DF
:1017A800E2E70520E0E70320DEE720B119B1816612
:1017B800043000F0FDBE704720B119B1C166043095
:1017C80000F0F6BE7047C3689A4210B504461DD1B2
:1017D80079B9836E80F88D100BB10438984794F866
:1017E8008C2004F16C0120462023BDE8104000F055
:1017F80069BE00230122036680F88D20016E014432
:10180800BDE8104004236C3100F097BE10BD10B540
:1018180090F88D30012B044604D1036E13B1436E4A
:1018280004389847022384F88D3000232366204625
:10183800BDE8104000F0BCBE036E1F2BDEBF036E78
:101848000133036690F88D30012BDAB205D1016EB1
:10185800014404236C3100F070BE7047002380F807
:101868008C30704790F88E300BB900F0A1BE7047ED
:10187800014B186800F0A4BF0C060020014B186843
:1018880001F0A4BB0C060020014B586800F098BF7B
:101898000C060020014B586801F098BB0C0600208C
:1018A800014B986800F08CBF0C060020014B98682B
:1018B80001F08CBB0C060020036800229B681847C7
:1018C80043693BB1DB78407E0733DB1013FB00F044
:1018D800C0B2704718467047436918785B7843EA86
:1018E8000020704738B5837A8B4204460DD9037BB4
:1018F80001721944CDB201F00F01FFF7DDFF291184
:1019080041F010012046FFF7D7FF38BD08B5024661
:10191800416131B1FFF7E0FF013818BF0120507372
:1019280008BD0120FBE7C27AB1EBD20F08B508D297
:10193800C37B4172194401F0070141F0B001FFF780
:10194800BBFF08BD38B504461546FFF7CBFF29464F
:101958002046BDE83840FFF7E6BF08B501F03F0173
:10196800817341F04001FFF7A7FF08BD38B5437CFC
:10197800044613B1013B437438BD027A837A9A4214
:10198800FAD2057E036802229B6869409847237A49
:1019980001332372F0E72DE9F04791469DF820A026
:1019A800C27A98460023BAEBD20F43744FEAD203A7
:1019B80028BF03F1FF3A04460E4628BF5FFA8AFAA9
:1019C8004546AA4511D32A4631462046FFF7BAFFB5
:1019D80037464F4506D8217E20460137FFF7C6FF18
:1019E800FFB2F6E70135EDB2EBE742463146204655
:1019F800BDE8F047FFF7A6BF73B505460026C673D6
:101A08003146FFF7AAFFEC7AAA7AE408013CE4B26F
:101A1800013A00943346D2B231462846FFF7BBFF5D
:101A280002B070BD70B5002303814B790D680E7943
:101A380083728B79C372CB79037304462E44B54203
:101A480005D015F8011B2046FFF736FFF7E72046BB
:101A5800BDE87040FFF7D0BF13B50446417AFFF7E1
:101A68002FFFA27A4B1E1844C0B2013A00900B46D1
:101A7800D2B2217A2046FFF78EFF02B010BD0000D7
:101A88002DE9F04F2DED028B426989B08246002A7C
:101A980000F0FE80D478E51DEB1000930D294FEA85
:101AA800D503039308D10021FFF71CFF012009B0DB
:101AB800BDEC028BBDE8F08F0A2938D10021FFF771
:101AC80011FF9AF81910039B9AF8092011FB03F1EA
:101AD800CDB252FA81F19AF81020C9B24AB19AF8F7
:101AE8000B20D408A5EBD2020A44D0B252B2002A85
:101AF80003DC5046FFF717FFD8E79AF80F20104489
:101B080000F00700641B8AF80F008AF80940504665
:101B1800FFF7A2FF9AF81040012CC7D19AF80F10CE
:101B2800C90001F0F8015046FFF717FFBEE710792A
:101B3800577981421FD3C519A9421CDA091AC9B2BB
:101B48004FF000089AF80D009AF819C0967810FB23
:101B58000CF0C3B2951D0593B8F1000F09D150469A
:101B6800FFF7BAFE01280CD8009B03FB06F201FB25
:101B7800025500241FE0202940F08A804FF0010818
:101B8800E0E714F0070418BFC4F108044FF000069A
:101B980018BFE4B20532B446F0B2814206D912F851
:101BA80001EFF4441FFA8CFC0136F5E7009B6E5CEC
:101BB80003FB0C773D449AF8083008EE103A9AF87F
:101BC800093008EE903A9AF81130069305EB060BA7
:101BD80001277A1ED3B20493DDE90332934254D924
:101BE800002301939DF804309AF8192002939A4231
:101BF80047D9069B049A8AF81130029B134308D0F0
:101C08009AF80920013218EE101AD2B25046FFF79E
:101C180099FEA946D94523D0B8F1000F1BD199F8F0
:101C2800001024B1009BBB4204BF2141C9B29AF8FD
:101C38001900022809D1029B7BB10909154B5046AE
:101C4800595C0791FFF792FE07995046FFF78EFE01
:101C580009F10109DEE70021E3E701F00F01EDE7F3
:101C68004FF00009059B5FFA89F2934206D90021DB
:101C78005046FFF77BFE09F10109F3E7019B0133A9
:101C8800AFE73544B3440137A3E718EE901A30E7BD
:101C980000200CE7F49F000810B50A4C22681318BE
:101CA800EFF308818B4206D9074B0C221A604FF0DC
:101CB800FF32104610BD05490548091A8B42F3D278
:101CC8002360F6E700000020081200200000022030
:101CD80000040000FEE70000024B16221A604FF0D5
:101CE800FF3070470812002001207047704700003D
:101CF80038B50E4A0E4B054618784FF47A73B3FB85
:101D0800F0F31068B0FBF3F000F0BCF8044658B9E3
:101D18000F2D09D8024629464FF0FF3000F05EF833
:101D2800044B20461D6038BD0120FCE7240000203C
:101D3800040000200800002008B50B4B1A6842F484
:101D480000721A601A6842F480621A601A6842F4D3
:101D580080721A60032000F02FF80020FFF7C8FFF8
:101D6800FFF7C4FF002008BD003C0240034A044BB3
:101D780011681B780B441360704700BFEC08002003
:101D880004000020014B1868704700BFEC080020D1
:101D980038B50446FFF7F6FF631C1CBF054B1B78DC
:101DA800054618BFE418FFF7EDFF431BA342FAD31B
:101DB80038BD00BF040000200749CA6822F4E06269
:101DC8000302120403F4E063120C134343F0BF63ED
:101DD80043F40033CB60704700ED00E0164B30B59C
:101DE800DC68C4F30224C4F10705231D042D28BFB1
:101DF8000425062B4FF0FF338CBF033C002403FA65
:101E080005F521EA0501A34022EA0302A1400028C2
:101E180041EA0203ACBF00F16040084A4FEA0313ED
:101E2800B8BF00F00F00DBB2AABF00F56140135441
:101E380080F8003330BD00BF00ED00E014ED00E095
:101E4800002808DB4209012300F01F0003FA00F014
:101E5800014B43F82200704700E100E000280DDB49
:101E68004309012200F01F0002FA00F02033044A5F
:101E780042F82300BFF34F8FBFF36F8F704700BF47
:101E880000E100E00138B0F1807F0AD2064B074A32
:101E98005860F02182F823100020072298601A6009
:101EA80070470120704700BF10E000E000ED00E03F
:101EB800002809DB4309012200F01F0002FA00F0A4
:101EC8006033024A42F82300704700BF00E100E097
:101ED800704708B5FFF7FCFF08BD90F83530022BB6
:101EE80003D080234365012070470268052380F8EA
:101EF8003530136823F0010313600020704790F811
:101F080035007047044A5169014208B502D0506152
:101F180003F04EFC08BD00BF003C0140036D83B9CF
:101F2800C36C0268012B836C05D1DBB21361036DAE
:101F3800023303657047C3F307231361036D01334D
:101F4800F7E7036D012B03D1836C0268DBB2F4E77A
:101F5800036D022B17D190F83D30222B05D1026872
:101F6800136843F480731360704790F83D30212B59
:101F780009D1436A026813F8011B11614362438D5A
:101F8800013B9BB2438570472DE9F84606460F464C
:101F980091461D464FEA114A3368BAF1010F0CBF4A
:101FA8005C699C6927EA0404A4B2B4FA84F464095D
:101FB800A14501D0002017E06A1CEED0FFF7E2FE31
:101FC800089BC01AA84201D8002DE5D10023202281
:101FD800336386F83D2086F83E30326C86F83C3014
:101FE80042F0200232640120BDE8F8867047000004
:101FF80070B5044608B9012070BD90F83D3003F073
:10200800FF021BB980F83C20FFF7F0FF242384F877
:102018003D3023681A6822F001021A601A6842F4F7
:1020280000421A601A6822F400421A6001F0A4FF04
:102038003F4A6368934294BF3E4A3F4A90428CBFEE
:1020480000220122002AD6D121683C4E4A68B0FB02
:10205800F6F622F03F0232434A60354A0D6A93424F
:1020680084BF4FF49672724325F03F0591BF721CEE
:102078004FF47A76B2FBF6F201322A430A62CD694E
:10208800421E2B4825F44F45834225F0FF0532D8E0
:102098005B00B2FBF3F340F6FC720133134242D00B
:1020A800C3F30B032B43CB61D4E907300A6803431E
:1020B80022F0C00213430B608A68D4E9030322F4B8
:1020C8000342034322F0FF0213438B60D4E9053037
:1020D800CA68034322F0FF021343CB600B6843F046
:1020E80001030B6000202023206484F83D30206326
:1020F80084F83E0080E7A06850B903EB4303B2FBC5
:10210800F3F30133C3F30B037BB143F40043C9E793
:1021180019204343B2FBF3F30133C3F30B0323B199
:1021280043F44043BEE70423BCE70123BAE700BFFA
:10213800A08601007F841E00FF083D0040420F007A
:102148002DE9F04F044685B01E460F469146FFF72D
:1021580019FE94F83D30202B054603D0022005B027
:10216800BDE8F08F00904D49192301222046FFF762
:102178000BFF0028F2D194F83C30012BEED001235C
:1021880084F83C302368DFF814B11A68D2075EBFC0
:102198001A6842F001021A601A6822F400621A6092
:1021A800242384F83D3000232364A3F58033E362BD
:1021B8004FF0010A07F0FE072268136843F48073A2
:1021C80013604FF001113346009500222046FFF7B7
:1021D800DBFE236838B11B68DB0502D54FF40073BA
:1021E80023640320BBE71F61FFF7CCFD23685A690E
:1021F8005B690546C2F34002C3F380234FF0A00891
:1022080094F83D10A02901D013431DD023684FF046
:10221800200884F83D805A6912F0020F1A6842F4C7
:1022280000721A6025D0002203925A6903929B69B2
:102238000393039B19490095192301222046FFF7B0
:10224800A3FE88B101208AE7FFF79CFD401BB0423E
:1022580000D80EB984F83D8023685A695B69C2F3D7
:102268004002C3F38023CBE784F83D8084F83C0028
:1022780075E76FF480625A61594600951923012267
:102288002046FFF781FE0028DCD10AF1010ACA4581
:1022980092D384F83D8084F83C00D3E70200100014
:1022A800F7B500240094019490F83D40089D202C37
:1022B80002D0022003B0F0BD082D354F01D0012D0A
:1022C8001ED13C6846F2A816B4FBF6F619247443EE
:1022D8000194019C013C0194019C6CB92023046386
:1022E80080F83D3080F83E40036C80F83C4043F075
:1022F800200303640120DDE70468A469A407E8D487
:102308003C6846F2A816B4FBF6F619247443019407
:10231800019C013C0194019C002CDFD004682668D4
:10232800B705F5D490F83C60012EC2D02668F607B0
:102338005EBF266846F001062660266826F4006619
:102348002660212680F83D60102680F83E60002631
:1023580006644385438DC56241640385036B00931E
:10236800009B4262112B05D1B5F52A0F02D0B5F1B9
:102378002A4F03D1236843F480732360002380F835
:102388003C30626842F4E0626260184692E700BF3F
:1023980024000020F7B500240094019490F83D40F3
:1023A800089D202C02D0022003B0F0BD082D444F18
:1023B80001D0012D1ED13C6846F2A816B4FBF6F6F2
:1023C800192474430194019C013C0194019C6CB94B
:1023D8002023046380F83D3080F83E40036C80F889
:1023E8003C4043F0200303640120DDE70468A4694E
:1023F800A407E8D43C6846F2A816B4FBF6F61924FC
:1024080074430194019C013C0194019C002CDFD091
:1024180004682668B705F5D490F83C60012EC2D050
:10242800012680F83C602668F6075EBF266846F0FD
:1024380001062660266826F400662660222680F8B3
:102448003D60102680F83E60002606644385438D73
:10245800C56241640385036B0093438D42629BB25E
:10246800022B25D1202D01D0102D21D1009B122B1C
:1024780023681ED123F480632360236843F4006338
:1024880023604FF44071009B122B05D1B5F52A0F3C
:1024980002D0B5F12A4F03D1236843F48073236037
:1024A800002380F83C3062680A43626018467BE784
:1024B800236843F4806323604FF4E061E3E700BFDF
:1024C8002400002037B590F83D4004F02804282C5B
:1024D80031D100292DD0002A2BD090F83C40012C76
:1024E80029D005682C68E4075EBF2C6844F0010415
:1024F8002C602C6824F400642C60292480F83D406A
:10250800202480F83E40002404644285428DC36242
:1025180001946B690193AB69019380F83C40019B7E
:102528006B68416243F4E06302856B60204603B048
:1025380030BD0120FBE70220F9E737B590F83D40B0
:1025480004F02804282C31D100292DD0002A2BD0C2
:1025580090F83C40012C29D005682C68E4075EBF40
:102568002C6844F001042C602C6824F400642C606E
:102578002A2480F83D40202480F83E40002404644A
:102588004285428DC36201946B690193AB690193E3
:1025980080F83C40019B6B68416243F4E06302852C
:1025A8006B60204603B030BD0120FBE70220F9E74D
:1025B80090F83D30202B14D1282380F83D30036853
:1025C8001A68D2075EBF1A6842F001021A601A68D8
:1025D80042F480621A605A6842F440725A600020DD
:1025E80070470220704770477047704770477047C0
:1025F80038B5806B90F83D20456BD2B20DB1002301
:10260800EB63846B0CB10023E3630368196821F45E
:10261800806119600021418505B1296504B12165F2
:10262800196821F00101196090F83D10602909D15D
:10263800202380F83D30002380F83E300364FFF704
:10264800D6FF38BD02F02802282A0ED1196841F0B9
:1026580001011960196841F480611960002303635E
:1026680080F83D20FFF7FEF8EBE7202380F83D30A7
:10267800002380F83E30F5E710B590F83D2090F83B
:102688003E10036810290446D2B212D1222A10D172
:10269800196821F4006119605968080504D4602A92
:1026A8001CBF202284F83D200022226384F83E20AB
:1026B80007E002F028012829EED10022226384F8DD
:1026C8003D105A6812F400624FD05A68606B22F4C9
:1026D80000625A6090F83530012B374B2BD00365D8
:1026E800FFF7FBFB50B12268606B136823F001030E
:1026F8001360202384F83D30036D9847236C190735
:102708001FBF2268536823F4E063536094F83D3098
:10271800226C5207DBB20DD5282B0BD1274BE36275
:10272800202200232363204684F83D2084F83E308D
:10273800FFF76DF810BDA06B0365FFF7CEFB00280F
:10274800DCD023685A69510605D51A69636A1A707C
:10275800636A013363622268A06B136823F0010384
:102768001360202384F83D30C6E794F83D106029B3
:1027780015D1202184F83D1022645A69520605D5E6
:102788001A69636A1A70636A01336362226813689C
:1027980023F0010313602046FFF729FFAEE75A69CB
:1027A800500605D51A69636A1A70636A0133636251
:1027B8002046FFF757F8A1E7F92500080000FFFFBA
:1027C80070B503685A68C16A90F83E50044690F89C
:1027D8003D00102D8CB0EEB2C0B202D0402E40F0B9
:1027E80099829D695869C60707D4B1F52A0F02D0A6
:1027F800B1F12A4F50D10CB070BD91054CD5E26AA9
:10280800B2F52A0F0CD10122E26294F83E20402A48
:1028180011D1226D52B9626C02F0FE021A61EAE728
:10282800E26AB2F12A4FF0D10822EDE7626C42F079
:102838000102D2B2F2E72269B2F5804F19D194F8B9
:102848003D20212A626C16BF42F0010202F0FE020E
:10285800D2B21A61626B0AB1D26B2AB9A26B002A92
:10286800C9D0D26B002AC6D05A6842F400625A60B6
:10287800C1E7226D32B9626CD21102F0060242F051
:10288800F002CBE7226D012AB5D1626CD21102F0B9
:10289800060242F0F102C1E706070ED591050CD5F4
:1028A800626CD2B21A61626B12B9A16B0029A2D014
:1028B800D26B002AD8D1A26BD3E7860740F1DD801E
:1028C800910540F1DA8094F83E10E26A256B94F89D
:1028D8003D002228C9B240F0C880206D40B9402987
:1028E80006D101905A6901929B690193019B82E785
:1028F800216D89B92069B0F5404F0DD102915A690F
:1029080002929A690292029A1A6842F480721A60D4
:10291800236D013323656EE7618D89B251B9039147
:102928005A6903929A690392039A1A6842F40072E8
:102938001A6019E0618D89B2012949D112F5803FE9
:102948001BD11A6822F480621A605A6812F4006275
:102958000CD01A6822F480621A60002204925A6924
:1029680004929B690493049B0023D3E705925A6958
:1029780005929A690592059AD7E7082A1CD0202A59
:102988001AD0122D0DD1012A16D11A6822F48062AC
:102998001A60002206925A6906929B690693069B62
:1029A800E2E7102AF1D8A44921FA02F2D207ECD5BD
:1029B8001A6842F48062EBE71A6822F480621A60AF
:1029C800002207925A6907929A690792079AACE718
:1029D800618D89B202292AD1102A03D89649D1409B
:1029E800CE0720D4196821F480611960196841F470
:1029F8000061196059680D050DD512F5803F06D0A4
:102A0800511E1F2907D88D4ACA40D00703D55A68D6
:102A180042F480525A60002208925A6908929B69CF
:102A28000893089BA0E7196841F48061E1E71968F9
:102A380041F480611960596809050ED512F5803F87
:102A480007D0013A1F2A08D87C4921FA02F2D60792
:102A580003D55A6842F480525A60002209925A6992
:102A680009929B690993099B7EE700220A925A6999
:102A78000A929B690A930A9BBDE66D07596840F163
:102A88008B800E053FF5B7AE0506C0F380013ED535
:102A980050053CD500293DD194F83D20258D94F86A
:102AA8003E10E06AD2B2C9B2C5B9212A18D10828A5
:102AB80055D0202853D010F5803F50D05A6822F4C2
:102AC800E0625A6011232363002384F83E302023F8
:102AD80084F83D302046FFF786FD8CE6212A05D094
:102AE80040297FF488AE222A7FF485AE628D92B2A7
:102AF8001AB95A6822F48062B9E694F83E20402A4E
:102B080013D120460CB0BDE87040FFF707BA002982
:102B18003FF471AE92057FF56EAEE16A94F83D2000
:102B2800212A33D1628D92B24AB1626A12F8011B2E
:102B380019616262638D013B9BB263855BE608297C
:102B48000DD020290BD011F5803F08D0596821F409
:102B5800E06159601123236384F83E20B7E75A687F
:102B680022F4E0625A601A6842F400721A60002384
:102B78002022236384F83D2094F83E2084F83E30D8
:102B8800402A2046A7D1FFF730FD34E694F83E30BE
:102B9800402B7FF430AEB4E70E053FF52CAE45066A
:102BA800C0F380014CD550054AD500294BD194F883
:102BB8003D20222A7FF41FAE628D92B2032A14D9D7
:102BC8001A69636A1A70636A01336362638D013B31
:102BD8009BB26385638D9BB2032B7FF40CAE226896
:102BE800536823F48063536005E6E06A02283FF4E3
:102BF80002AE012A3FF6FFAD1A6822F480621A601D
:102C08005A6822F4E0625A601A69636A1A70636A41
:102C180001336362638D013B9BB26385202384F893
:102C28003D3094F83E3084F83E10402B6CD121633F
:102C38002046FFF7DBFCDEE5140001008180008000
:102C480000293FF4D8AD92057FF5D5ADE26A608DD5
:102C5800616A80B2042809D15A6822F480625A60F5
:102C68001B690B70636A0133636263E7608D80B22E
:102C780003280CD15868042A20F480605860EFD0EB
:102C8800022AEDD01A6822F480621A60E8E7608DA3
:102C980080B20228E4D1012A01D0102A28D11A686A
:102CA80022F480621A601B690B70626A531C6362AB
:102CB800638D013B9BB2638523681B695370636A0C
:102CC800226801336362638D013B9BB2638553685D
:102CD80023F440735360202384F83D3094F83E3049
:102CE800402B4FF0000384F83E300DD123639FE75B
:102CF800042A01D0022A03D11A6842F48062D1E77B
:102D08001A6842F40072CDE7122323632046FFF7C6
:102D18006BFC70E5216C11B3596900258E0728D525
:102D2800960526D5226C02B19D6994F83D2002F0E3
:102D38002802282A16D15A6822F480625A606FEA5B
:102D480095012B064FF0000354BFA289228B84F80B
:102D58003C3001F001012046FEF735FD4BE59D6949
:102D68005969DBE76FF002025A61002384F83C30AE
:102D780041E5CE0640F1B180950540F1AE8094F86A
:102D88003D505A6822F4E0625A6000220B925A6958
:102D98000B921A6842F001021A600B9A1A6822F420
:102DA80080621A605A681205EDB220D505F0F70264
:102DB800222A4AD1A06B0268526892B26285628D5B
:102DC80092B21AB1226C42F0040222645A6822F4C8
:102DD80000625A60FFF793F8012808D0A06B794B7E
:102DE8000365FFF77AF810B1A06B036D9847638D00
:102DF8009BB213B323685A69560709D51A69636ADF
:102E08001A70636A01336362638D013B9BB2638509
:102E180023685A69500609D51A69636A1A70636A81
:102E280001336362638D013B9BB26385638D9BB203
:102E38001BB1236C43F004032364236C13B32046B3
:102E48000CB0BDE87040FFF717BC606B02685268B1
:102E580092B26285628D92B21AB1226C42F004027B
:102E680022645A6822F400625A60FFF748F8012881
:102E7800BDD0606B534B0365FFF72FF80028B6D021
:102E8800606BB2E72A2D06D12363282384F83D30EE
:102E98002046FEF7D1FC94F83D30282B0CD14A4B44
:102EA800E362202200232363204684F83D2084F82F
:102EB8003E30FEF7ACFC9EE4236B222B02D0222D81
:102EC8007FF499AC00232022236384F83D2084F802
:102ED8003E302046FEF7B0FC8DE400F0F7002128D4
:102EE800C1F3800535D1090627D5560525D53DBB43
:102EF80094F83D10628D92B2C9B2002A3FF47BACBF
:102F0800626A12F8015B1D616262628D013A92B2D7
:102F18006285628D92B2002A7FF46DAC29297FF414
:102F28006AAC5A6822F480625A602823206384F8C5
:102F38003D302046FEF792FC5DE4002D3FF45BAC8B
:102F480095057FF558AC628D92B2002A3FF453ACD8
:102F5800EBE5480627D5510525D53DBB94F83D201E
:102F6800618D89B2D2B200293FF445AC1969636A10
:102F78001970636A01336362638D013B9BB2638599
:102F8800638D9BB2002B7FF436AC2A2A7FF433ACD6
:102F98002268536823F48063536022232363282321
:102FA80084F83D3095E7002D3FF425AC92057FF578
:102FB80022AC628D92B2002A3FF41DAC1A69636A92
:102FC8001A704FE6F92500080000FFFFF8B50368FE
:102FD8005F695E6890F83E200446F805D2B2C7F3F0
:102FE800002508D5F10548BF6FF48071C6F30025A8
:102FF80044BF59610125B80506D5F10542BF6FF4F4
:10300800007145F002055961780536D5F10534D5CA
:10301800608D94F83D10D4F830C0202A80B2C9B22F
:103028005BD1002859D101F0F700212804D02829C4
:1030380053D1BCF1210F50D194F83D20E16A082901
:10304800D2B201D020292AD1282A28D12B4AE262DB
:103058005A6822F4E0625A606FF480625A611A6812
:1030680022F480621A60002320222363204684F819
:103078003D2084F83E30FEF7CAFB3A053BD5F30500
:1030880039D523686FF4006245F008055A61236C4E
:103098001D4325642046BDE8F840FFF7EDBA212A14
:1030A80017D11649E1622263202284F83D200022CC
:1030B80084F83E205A6822F4E0625A606FF4806215
:1030C8005A611A6822F480621A602046FEF7C6FB2D
:1030D800D3E76FF480625A61CFE76FF48061102AFA
:1030E800596145F0040501D0402AC6D11A6842F456
:1030F80000721A60C1E7002DC9D1F8BD0000FFFFBA
:1031080090F83D007047006C7047F0B504468BB0EE
:1031180060B390F8BD33056803F0FF021BB980F86F
:10312800BC2303F0DDFB032384F8BD33EB6B25469A
:1031380013F4807355F8100B08BF236101F0A4FA4B
:103148000FCD6E460FC60FCD0FC695E8030086E873
:1031580003002546271D97E80E0055F8100B01F0CF
:10316800DDF9064620B1022384F8BD3301254EE07F
:103178000146206801F08EFA3046D4F804C01C26B7
:103188004FF0010E0146C2B2944500F101001CD86F
:1031980000231C261946D8B2844503F1010322D81E
:1031A8000FCD6E460FC60FCD0FC695E8030086E813
:1031B800030097E80E00206801F0AEFA01230546E7
:1031C800F0B1022284F8BD23D0E706FB0243C3E92D
:1031D800111183F83DE083F83C20A3F8422083F8DE
:1031E8003F101965CFE706FB0042C2E9811182F85A
:1031F800FD1182F8FC0182F8FF11C2F81012CAE72B
:1032080084F83800206884F8BD3301F0C1FD2846F1
:103218000BB0F0BD10B50446006894F8BC33012B20
:1032280015D0012384F8BC33A36A012B06D1A36906
:10323800012B1EBF836B43F48033836301F09CFD35
:10324800206801F01BFA002084F8BC0310BD02209E
:10325800FCE700002DE9F04F066887B004463046C9
:1032680001F0D1FD0290002840F02481206801F08F
:103278009BFD002800F01E81206801F095FD830762
:1032880048BF2268206842BF536903F002035361B4
:1032980001F08AFD070300F11081206801F084FD28
:1032A80045030CD5206801F08BFD2546039006F5F3
:1032B80010694FF00008039B002B40F0BD81206887
:1032C80001F072FD002815DAD6F8043823F001035E
:1032D800C6F8043894F8F433012B40F041820021F9
:1032E80084F8F413204600F0CEFB2268536903F0FB
:1032F80000435361206801F057FD00050BD5D6F84F
:103308000838D90702D5204603F060FB22685369C4
:1033180003F400635361206801F046FDC20437D509
:10332800D6F80438206823F001031021C6F80438C1
:1033380001F0C8F906F5006506F510634FF67F3110
:1033480062680298824200F20F82EB6943F001132F
:10335800EB61236B002B00F01982D5F8843043F021
:103368000B03C5F884306B6C43F00B036B64D6F821
:103378000038217C206823F4FE63C6F8003804F581
:10338800717201F061FD2268536903F4805353613F
:10339800206801F009FD830416D5206801F037FD87
:1033A800206801F081FAE060256800F0DFFD227BEB
:1033B8000146284601F0F2F8204603F0FAFA22689E
:1033C800536903F400535361206801F0EDFCC7060C
:1033D8002AD52268936923F010039361376AC7F3EB
:1033E8004343022B07F00F0540F0DB8147F6F073EB
:1033F8001F4214D01C2303FB0545C7F30A18424695
:10340800D5F80812304601F045FCD5F80822D5F861
:10341800143242444344C5F80822C5F814322268DD
:10342800936943F010039361206801F0BDFC06071F
:1034380007D5204603F0B9FA2268536903F0080358
:103448005361206801F0B0FCC50208D50021204670
:1034580003F0F2FA2268536903F480135361206879
:1034680001F0A2FC800208D50021204603F0E0FA12
:103478002268536903F400135361206801F094FC37
:10348800410007D5204603F0DBFA2268536903F0B0
:1034980080435361206801F087FC42070AD52368FE
:1034A8005D686B0702D5204603F0CEFA22685368A0
:1034B8002B43536007B0BDE8F08F2068DFF810B3E6
:1034C80001F076FC06F53065804604F5017A4FF088
:1034D8000009B8F1000F3FF4E0AE18F0010F00F05A
:1034E800A3805FFA89F12068039101F071FC10F064
:1034F800010F039907464DD00123AB60236820696B
:10350800D3F840C003F5306303EB491301289A68E8
:1035180054D1100714D5DC4504D9120444BF4FF424
:1035280000429A602046039303F028FA04F571726A
:103538002068012101F088FC039B08229A6029E099
:10354800900601D52022F9E712F0280F22D1DC4598
:1035580004D9120402D54FF40042EFE71B69DAF8E8
:103568000020C3F31203D31ACAF81030DAF8043073
:103578001A44CAF80420204603F006FAB9F1000FED
:1035880008D1D4F810322BB9206804F571720121E2
:1035980001F05AFC380732D5236820691A6C03F504
:1035A800306303EB49130128996814D15A4515D99A
:1035B800090444BF4FF4004199600FE083488445F3
:1035C80005D11004C7D4920644BF20229A60204631
:1035D80003F0DAF9DEE77D488242E9D0204603921B
:1035E80003F0CCF9039A5A4507D92169012904D176
:1035F800206804F5717201F027FC0823AB60FB0614
:1036080044BF1023AB60B80609D52169012904D14C
:10361800206804F5717201F017FC2023AB60B9042F
:1036280044BF4FF40053AB6009F101094FEA580851
:1036380020350AF11C0A4CE7039BDA0740F1878022
:103648005FFA88FB2068594601F0CBFBC3070746A1
:1036580024D5D6F83438012008F00F0200FA02F217
:1036680023EA0203C6F834382369C9F808008342FC
:1036780002BFD5E911239B18AB645946204603F0D5
:103688008CF92169012909D1B8F1000F06D1236D00
:1036980023B9206804F5717201F0D6FB380744BFDE
:1036A8000823C9F80830F90644BF1023C9F80830C0
:1036B8007A0644BF4023C9F80830BB0744BF022339
:1036C800C9F808303F0642D5D5E914329A423ED8A7
:1036D8009B1A6A6CD4F800A0934228BF13460333A0
:1036E8009B0804930AF5106303EB48130593059BA5
:1036F80004999A6992B28A42D5E9147325D39F42F4
:1037080000D95FB9DAF8343808F00F02012101FA5C
:1037180002F223EA0203CAF8343818E0FF1A6B6C85
:103728009F4228BF1F46FB1C9B080493237C0093E1
:10373800A96CBBB25A46504601F0AAF9AB6C3B449F
:10374800AB646B6D1F446F65D1E79F42DAD9039B69
:103758005B0808F1010803931C3509F12009AAE563
:10376800204603F04BF9C0E599601A6822F400126C
:103778001A60C3F80812D3F8002222F40012C3F822
:103788000022029A013202922033D9E56B6943F490
:10379800005343F02B036B612B6943F00B032B6140
:1037A800E5E5062B7FF43BAE082204F5717130463F
:1037B80001F070FA1C2303FB0545C7F30A17D5F877
:1037C80014321F44C5F8147229E600BF0A31544F59
:1037D8000A30544F10B590F8BC23012A04460BD088
:1037E800012280F8BC2380F83810006801F0B4FA90
:1037F800002084F8BC0310BD0220FCE770B501F07E
:103808000F06C6EBC60411F0800F05464FEA840484
:103818004FF01C001FD000FB065004F13C010124AE
:10382800294480F83D408A604A780E70CB7002B116
:10383800CE80022B04BF00230B7195F8BC33012BFB
:1038480012D00123286885F8BC3301F038F800202D
:1038580085F8BC0370BD00FB065004F5FE7100241A
:10386800294480F8FD41DEE70220F3E710B504465D
:1038780001F00F00C0EBC00311F0800F4FEA830383
:103888004FF01C0216D002FB004203F13C01012359
:10389800214482F83D30087094F8BC33012B12D0D3
:1038A8000123206884F8BC3301F048F8002084F82C
:1038B800BC0310BD02FB004203F5FE710023214446
:1038C80082F8FD31E7E70220F3E738B501F00F058C
:1038D8001C2404FB050104FB050401F5FE71C4F872
:1038E80010320023C4F80822C4F8143284F8FD31D9
:1038F80084F8FC5103690068012B08BFC4F80C2246
:10390800DAB21DB901F04AF8002038BD01F0D4F848
:10391800FAE701F00F011C2303FB0100D0F81402A1
:10392800704738B501F00F051C2404FB050104FBA2
:1039380005043C312365002363650123A26484F8F0
:103948003D3084F83C5003690068012B08BFE264ED
:10395800DAB21DB901F022F8002038BD01F0ACF848
:10396800FAE738B5436801F00F059D4204462CD8A4
:1039780011F0800F4FF01C001ED000FB054200FB29
:10398800054101233C3182F83D3001238B700D70D5
:1039980094F8BC239A421AD0206884F8BC3301F00A
:1039A80087F92DB9217C206804F5717201F04CFA71
:1039B800002084F8BC0338BD00FB01431A4603F518
:1039C800FE71002382F8FD31DFE70120F3E70220D2
:1039D800F1E738B5436801F00F029A4204462AD845
:1039E800C2EBC20311F0800F4FEA83034FF01C00B3
:1039F80018D000FB024003F13C010123214480F868
:103A08003D3000258D700A7094F8BC33012B14D01A
:103A18000123206884F8BC3301F075F984F8BC539D
:103A2800284638BD00FB024003F5FE7100232144FF
:103A380080F8FD31E5E70120F3E70220F1E70068AF
:103A480070B51204446A19B922438262002070BD1D
:103A5800836A4D1E04EB134400235E1CDBB29D42B7
:103A680005D83F3100EB810022434260EEE7403346
:103A780000EB83035B6804EB13443346EDE703680C
:103A880000205962704770472DE9F341044640B35E
:103A98000368DD0710D4236898075ED423681A07E3
:103AA80000F1A08023685B0700F1BE80A0690028B0
:103AB80040F01F8100202BE0A64B9A6802F00C0210
:103AC800042A07D09A6802F00C02082A0BD15A6817
:103AD800510208D59F4B1B689A03DCD56368002BFD
:103AE800D9D1012014E06268B2F5803F13D11A6879
:103AF80042F480321A60FEF745F9964E054633685F
:103B08009B03C8D4FEF73EF9401B6428F7D903206D
:103B180002B0BDE8F0818F4DB2F5A02F2B6807D118
:103B280043F480232B602B6843F480332B60E2E757
:103B380023F480332B602B6823F480232B60002A26
:103B4800D9D1FEF71FF906462B689F03A3D5FEF7C8
:103B580019F9801B6428F7D9D9E77E4B9A6812F0C7
:103B68000C0F07D09A6802F00C02082A11D15B6882
:103B78005E020ED4774B1A68950702D5E268012ACF
:103B8800AFD11A68216922F0F80242EAC1021A602C
:103B980084E7E268704BB2B101221A60FEF7F2F8CE
:103BA8006C4D06462B68980707D52B68226923F0C9
:103BB800F80343EAC2032B6070E7FEF7E3F8801BC3
:103BC8000228EFD9A3E71A60FEF7DCF8614E054634
:103BD800336899077FF562AFFEF7D4F8401B0228D7
:103BE800F6D994E762695D4B7AB101221A60FEF753
:103BF800C9F8584E0546736F9F073FF553AFFEF758
:103C0800C1F8401B0228F6D981E71A60FEF7BAF816
:103C1800504E0546736F98077FF544AFFEF7B2F82C
:103C2800401B0228F6D972E74A4B1A6C12F08052F0
:103C380028D101921A6C42F080521A641B6C03F06E
:103C480080530193019B0127454D2B68D9051BD54E
:103C5800A368404D012B27D12B6F43F001032B673D
:103C6800FEF790F83B4E054641F28838336F9B07C4
:103C780039D5002F3FF41AAF364A136C23F080531E
:103C8800136413E70027DFE72B6843F480732B6086
:103C9800FEF778F806462B68DA05D9D4FEF772F8ED
:103CA800801B0228F7D932E7052B04D12B6F43F08C
:103CB80004032B67D0E72A6F22F001022A672A6FD4
:103CC80022F004022A67002BCAD1FEF75BF841F202
:103CD800883806462B6F9807CBD5FEF753F8801B1C
:103CE8004045F7D913E7FEF74DF8401B4045BDD9CD
:103CF8000DE7184DAB6803F00C03082B47D0194E9D
:103D080000230228336035D1FEF73CF807462B68BC
:103D1800990129D4D4E907321343626A43EA82132A
:103D2800E26A43EA0263A26A5208013A43EA02439A
:103D38006B6001233360FEF725F8064D04462B68B7
:103D48009A013FF5B7AEFEF71DF8001B0228F6D919
:103D5800DDE600BF0038024000004742800E4742BF
:103D68000070004060004742FEF70CF8C01B0228B4
:103D7800CDD9CCE6FEF706F804462B689B017FF503
:103D880099AEFDF7FFFF001B0228F6D9BFE6012810
:103D98003FF4BEAEAB68E26903F4800191427FF460
:103DA800A0AE216A03F03F028A427FF49AAE616AAC
:103DB80047F6C0721A408A427FF493AEA16A03F4B0
:103DC80040328A427FF48DAEE26A03F07063934218
:103DD8003FF470AE85E600BF134908B58B6803F061
:103DE8000C03042B1CD0082B1CD14A684B6849686B
:103DF80013F4800314BF0D480D48C1F3881118BF90
:103E0800002302F03F02A1FB0001FCF7B1FE064BC4
:103E18005B68C3F3014301335B00B0FBF3F008BDFB
:103E28000248FCE70248FAE70038024040787D0182
:103E38000024F4002DE9F0410D46044610B9012094
:103E4800BDE8F081444B1A6802F00F028A4228D379
:103E5800226897072DD4D00741D43F4B1A6802F047
:103E68000F02AA4266D8226851076CD4130707D5F7
:103E78003A4A2169936823F4604343EAC103936093
:103E8800FFF7AAFF354B364A9B68C3F30313D35C8D
:103E9800D840344B1860344B1868FDF729FF0020D0
:103EA800CEE7CAB21A701B6803F00F038B42C6D163
:103EB800CEE72A4B12F0040F1EBF996841F4E05177
:103EC8009960160742BF996841F460419960234997
:103ED800A0688B6823F0F00303438B60BBE762683C
:103EE8001E4B012A1CD11B6813F4003FA7D01B4EA0
:103EF800B36823F003031343B360FDF743FF41F2B4
:103F080088380746B368626803F00C03B3EB820F86
:103F1800A3D0FDF737FFC01B4045F3D903208FE737
:103F2800911E01291B6802D813F0007FDEE713F009
:103F3800020FDBE7EAB21A701B6803F00F03AB420B
:103F48007FF47DAF8FE70549E0688B6823F4E05381
:103F580003438B608AE700BF003C02400038024000
:103F6800A8A000082400002008000020014B1868C1
:103F7800704700BF24000020044B054A9B68C3F328
:103F88008223D35C034A1068D84070470038024047
:103F9800B8A000082400002003689A68D20410B56D
:103FA80004460AD5DB68D90507D501F01FF9226850
:103FB800D368DBB263F4C073D36023689A68920451
:103FC8000BD5DB689B0508D5204600F00FF8226862
:103FD800D368DBB263F42073D360034B4FF4003231
:103FE8005A610123637710BD003C01407047704758
:103FF800704703681A69910710B504460ED5DA6848
:1040080092070BD56FF002021A61012202779B69B1
:104018009B0777D001F02EFF0023237723681A69C6
:10402800500710D5DA6851070DD56FF004021A61F0
:10403800022222779B6913F4407F204668D001F062
:1040480019FF0023237723681A6912070FD5DA6846
:1040580010070CD56FF008021A6104222277DB6979
:10406800990720465AD001F005FF002323772368DB
:104078001A69D20610D5DA68D0060DD56FF010028D
:104088001A6108222277DB6913F4407F20464BD05F
:1040980001F0F0FE0023237723681A69D10708D5B9
:1040A800DA68D20705D56FF001021A61204601F0DF
:1040B800B5FE23681A69100608D5DA68110605D511
:1040C8006FF080021A61204600F09FF823681A6991
:1040D800520608D5DA68500605D56FF040021A6115
:1040E8002046FFF785FF23681A69910622D5DA680A
:1040F80092061FD56FF0200220461A61BDE81040D5
:1041080000F082B801F0B4FE2046FFF770FF83E7A5
:1041180001F0AEFE2046FFF76AFF92E701F0A8FE25
:104128002046FFF764FFA0E701F0A2FE2046FFF754
:104138005EFFAFE710BD0000244A036890420ED02E
:10414800B0F1804F0BD0A2F57C42904207D002F527
:104158008062904203D002F58062904215D14A688D
:1041680023F070031343194A904219D0B0F1804FDD
:1041780016D0A2F57C42904212D002F5806290429D
:104188000ED002F5806290420AD0114A904207D0C0
:1041980002F58062904203D002F58062904203D11A
:1041A800CA6823F4407313434A6923F08003134316
:1041B80003608B68C3620B688362044B984204BF38
:1041C8000B69036301234361704700BF000001408E
:1041D8000040014010B50446A0B190F83D3003F00E
:1041E800FF021BB980F83C2001F0A0F902232068E7
:1041F80084F83D30211DFFF79FFF012384F83D30EF
:10420800002010BD0120FCE7704770470368DA689A
:1042180022F49072DA605A6922F001025A6120236E
:1042280080F83A30704790F83930202B18D1A9B16E
:10423800A2B190F83830012B12D0C2840162828476
:10424800016800232122C36380F8383080F83920C0
:10425800CA6842F08002CA60184670470120704759
:104268000220704790F83A30202B20D1E9B1E2B112
:1042780090F83830012B1AD0C2858285002322227B
:10428800C36380F83A20026880F838308162D168C8
:1042980041F48071D160516941F001015161D168E7
:1042A80041F02001D1601846704701207047022074
:1042B800704710B590F83A30222B33D181680469E1
:1042C800836A0268B1F5805F23D15268ECB9C2F302
:1042D800080223F8022B8362C48D013CA4B2C48572
:1042E8008CB90368DA6822F02002DA60DA6822F40E
:1042F8008072DA605A6922F001025A61202380F83C
:104308003A3001F0A3F900200DE0D2B223F8012BD6
:10431800E1E7591C526881620CB91A70DCE702F0B7
:104328007F02FAE7022010BD03681A68D96870B5E1
:1043380016075D69044607D196065CD58D065AD5E1
:10434800BDE87040FFF7B5BF05F0010001F49075B6
:10435800054350D0D60705D5CD0542BFE36B43F0E2
:104368000103E363530704D518B1E36B43F0020379
:10437800E363960704D518B1E36B43F00403E363E2
:10438800150707D501F0200303431EBFE36B43F075
:104398000803E363E36B4BB3900604D5890602D5A3
:1043A8002046FFF786FF23685B69E56B03F040034F
:1043B80005F008051D43204619D0FFF727FF23689D
:1043C8005A6952060FD55A69606B22F040025A6149
:1043D80048B1264B0365FDF780FD38B1606BBDE839
:1043E8007040036D1847204601F046F970BD01F092
:1043F80043F9E563FAE7160628D50D0626D594F89D
:104408003920212AF2D1A168226AB1F5805F18D13A
:104418001188C1F308015960216981B90232226209
:10442800E28C013A92B2E284002ADFD1DA6822F003
:104438008002DA60DA6842F04002DA60D6E70132D8
:10444800EDE7511C216212785A60E9E75006CDD594
:104458004A06CBD5DA6822F04002DA60202384F8D5
:104468003930204601F0F5F8C0E700BF794400086C
:1044780008B5806B0023C385C38401F0FDF808BD2F
:1044880090F83830012B11D00268242380F8393095
:10449800D36823F00C0343F00803D360202380F88B
:1044A8003930002380F838301846704702207047AA
:1044B80090F83830012B11D00268242380F8393065
:1044C800D36823F00C0343F00403D360202380F85F
:1044D8003930002380F8383018467047022070477A
:1044E80090F8392090F83A00104370470A4B013B86
:1044F8000FD00269002AFADA0369074A43F0010378
:104508000361013A05D0036913F00103F9D1184694
:1045180070470320704700BF410D030084B038B5D1
:1045280005AD85E80E000A9B012B044625D1836B57
:1045380023F480338363C36823F4840323F04003A4
:10454800C360C36823F44013C360119B012B02BFEF
:10455800C36843F48013C360FFF7C8FF089B012BAF
:1045680007D1A36843F00603A360A36843F02003C0
:10457800A360BDE8384004B07047C36843F0400307
:10458800C360FFF7B3FF0E9B23B9A36B43F48033DB
:10459800A363E3E7A36B23F48033F9E7022A4AD144
:1045A800274B284A0B44934239D9274B274A0B44B7
:1045B800934236D9264AA1F57403A3F510539342C2
:1045C80031D9244AA1F18373A3F5E74393422CD34D
:1045D800214B224A0B44934229D9214B214A0B44AF
:1045E800934226D3204B214A0B44934223D3204A9B
:1045F800A1F1B773A3F5585393421ED31D4B1E4A1E
:104608000B44934234BF07230623C26822F4705236
:10461800C260C26842EA8323C360002070470F2348
:10462800F3E70E23F1E70D23EFE70C23EDE70B2368
:10463800EBE70A23E9E70923E7E70823E5E700BFF3
:10464800405327FFFF340C00401E1BFF3F420F0062
:104658007F4F120020D6130060B6E5FE5FE3160018
:1046680000D3CEFE40771B00C05BB3FEC091210093
:1046780020753800E05459FEE09C4100836843F0FF
:104688000103836000207047836823F0010383607F
:104698000020704708B5C368012923F0C043C360F0
:1046A80008D1C36843F00053C3603220FDF770FBA4
:1046B800002008BD19B9C36843F08043F4E701201E
:1046C800F7E70000890141F02001064A0161013A3B
:1046D80005D0036913F02003F9D118467047032069
:1046E800704700BF410D03001023064A0361013AD9
:1046F80005D0036913F01003F9D118467047032059
:10470800704700BF410D0300D0F800381943C0F8C6
:10471800001800207047000084B02DE9F0470446D7
:1047280009A880E80E0000230C9E139D0F46194629
:1047380003F1400204EB820201330F2B5160F7D1E1
:10474800002D7BD1A36B43F40013A363A36B23F465
:104758000023A363A36B23F48023A3630023C4F87B
:10476800003ED4F80038C4F800380E9B012B04F53D
:1047780000686DD10B99002968D12046FFF7C4FF66
:1047880010212046FFF79EFF01462046FFF7ACFFA9
:104798000843C0B200230038C8F8103018BF012001
:1047A800C8F8143004F51062C8F81C3019464FF0E8
:1047B800904C4FF0006E4FF67F39BB424AD1002231
:1047C80004F5306311464FF0904C4FF0006E4FF6F1
:1047D8007F39BA4251D1D8F81030012E23F48073B2
:1047E800C8F810300AD12E4BC8F83030D8F830301D
:1047F80043F4803343F00303C8F830300023A36147
:104808006FF0804363611EB9A36943F01003A3618D
:10481800A269244B1343A3610F9B1BB1A36943F007
:104828000803A361012D01BFA36943F0804343F04E
:104838000403A361BDE8F04704B07047236823F47C
:1048480000132360A36B43F4002386E7194694E71B
:10485800032192E7D2F800A0BAF1000F0BDA3BB9B6
:10486800C2F800E011610133C2F808902032A4E7D1
:10487800C2F800C0F6E71160F4E7D3F800A0BAF177
:10488800000F0BDA3AB9C3F800E019610132C3F836
:10489800089020339DE7C3F800C0F6E71960F4E7F5
:1048A8000001800000383C80D0F8083813F006007A
:1048B80004D013F0020F14BF02200F20704730B548
:1048C8000D78012405F00F039C404B7800F5006239
:1048D800012B00EB4510D36918D11C43D461D0F8E3
:1048E80000391A0410D48A68D0F80049C2F30A03C0
:1048F800CA78234343EA824343EA855343F080530B
:1049080043F40043C0F80039002030BD43EA0444B2
:10491800D461D0F8003B1B04F6D48B68D0F8002B88
:10492800C3F30A031343CA7843EA824343F080532C
:1049380043F40043C0F8003BE6E7000030B50C78CC
:10494800497800F5006204F00F050123012903FAF4
:1049580005F3D16B00EB44100ED121EA0301D163BA
:10496800D16921EA0303D361D0F80029094B134028
:10497800C0F80039002030BD21EA0341D163D16974
:1049880021EA0343D361D0F8002B034B1340C0F84E
:10499800003BEFE7007833EC0078F3EF4B78DFF873
:1049A800ECC0F0B50E784D69374F012B00EB46147B
:1049B80046D104F51063BDB91D692F401F611D69FB
:1049C80045F400251D611D6905EA0C05012A1D61D4
:1049D80023D10A6902B15A61D4F8003943F004437B
:1049E800C4F800390020F0BDD3F810E00EEA0C0C32
:1049F800C3F810C0D3F810C00CEA07071F618F680E
:104A0800AF421D6938BF4F6145F400251D614D69EE
:104A18001F69C5F312053D43D8E7D4F8003943F0C0
:104A28000443C4F800394B69002BDBD0D0F8342894
:104A380006F00F060123B3401343C0F83438D1E71A
:104A4800D4F8100B00EA0C00C4F8100BD4F8100BC3
:104A5800384004F530631861886805B148611D69FC
:104A680045F400251D611D69C0F312002843012A81
:104A7800186102D1CA6802B15A61D4F8003B43F008
:104A88000443C4F8003BADE7FFFF07E00000F8FF70
:104A980010B59DF8084044B9033301329B0800EB78
:104AA800023001EB83038B4201D1002010BD51F885
:104AB800042B0260F7E700002DE9F3414D780F78E9
:104AC8004B69CE78DFF8C0C1DFF8C0E1012D00EBFB
:104AD800471440F08E8004F51065D5F810806BBB44
:104AE80008EA0C0CC5F810C0D5F810C04CF4002C1E
:104AF800C5F810C0D5F810C00CEA0E0EC5F810E0C5
:104B0800012A4ED10B6903B16B61012E0CD1D0F88B
:104B1800083813F4807FD4F800390CBF43F00053F1
:104B280043F08053C4F80039D4F8003943F0044303
:104B3800C4F80039002002B0BDE8F08108EA0E0E82
:104B4800C5F810E0D5F810E00EEA0C0CD1F808E032
:104B5800C5F810C00EEB030C0CF1FF3CBCFBFEFECD
:104B6800DFF82CC1D5F810800CEACE4C4CEA080CC2
:104B7800C5F810C0D5F810E0C3F3120C4CEA0E0CBF
:104B8800012EC5F810C0BBD1D5F810C02CF0C04C10
:104B9800C5F810C0D5F810C04CF0005CC5F810C0BE
:104BA800AEE7D4F80059012E45F00445C4F8005981
:104BB8000BD0002BBED0D0F8343807F00F020127F5
:104BC80097401F43C0F83478B4E7D0F8085815F474
:104BD800807FD4F800590CBF45F0005545F080554A
:104BE800C4F800590092C9689BB23A46FFF750FFD3
:104BF800A0E7D4F8105B05EA0E05C4F8105BD4F8FA
:104C0800105B05EA0C0504F530673D618D681BBB38
:104C18003B69C5F312051D433D613B6943F400231D
:104C2800012A3B6102D1CB6803B17B61012E0CD113
:104C3800D0F8083813F4807FD4F8003B0CBF43F059
:104C4800005343F08053C4F8003BD4F8003B43F0D2
:104C58000443C4F8003B6DE7DFF834C0D7F810E030
:104C68002B44013BB3FBF5F30CEAC34C4CEA0E0CA6
:104C7800C7F810C09BB2D7F810C06B43C3F3120338
:104C880043EA0C03CCE700BFFFFF07E00000F8FF92
:104C98000000F81F0332920801EB820200F58050F1
:104CA800914201D108467047036841F8043BF7E791
:104CB8004A780B78012A00EB431012D1D0F800296A
:104CC800002A06DB2BB1D0F8003923F08043C0F866
:104CD8000039D0F8003943F40013C0F80039002037
:104CE8007047D0F8002B002A06DB2BB1D0F8003B28
:104CF80023F08043C0F8003BD0F8003B43F4001396
:104D0800C0F8003BEBE70B784A7800EB4310CB7810
:104D1800012AA3F10203DBB20FD1D0F80029012B3D
:104D280022F40012C0F8002905D8D0F8003943F061
:104D38008053C0F8003900207047D0F8002B22F4C7
:104D48000012012BC0F8002B9EBFD0F8003B43F0A7
:104D58008053C0F8003BEEE7D0F8003823F4FE6338
:104D6800C0F80038D0F80038090101F4FE61194391
:104D7800C0F800180020704708B5D0F8043823F0B0
:104D88000203C0F804380320FDF702F8002008BD2C
:104D980008B5D0F8043843F00203C0F804380320FB
:104DA800FCF7F6FF002008BD426980691040704793
:104DB800D0F8183800F50060C0691840000C70473A
:104DC800D0F8183800F50060C069184080B2704704
:104DD80000EB411100F50060D1F8082B4069104044
:104DE800704710B5D0F81048D0F8343800EB4110AF
:104DF80001F00F01CB4000F51060DB018068DBB2E9
:104E08002343184010BD406900F001007047D0F8F6
:104E1800003923F4FF6323F00703C0F80039D0F802
:104E2800082802F00602042A02BFD0F8002942F03E
:104E38000302C0F80029D0F8042842F4807200F573
:104E4800006300205A60704730B5056C104CA542CD
:104E580000F5306303D9D0F8004B002C16DB002492
:104E68001C611C6944F400241C611C6944F018048A
:104E78001C611C69012944F0C0441C6101BF5A61CE
:104E8800D0F8003B43F08023C0F8003B002030BD41
:104E98000A30544F86B00023052853D8DFE800F0C5
:104EA80003111E2B38450093274B28481A6B42F0F4
:104EB80001021A631B6B03F001030093009B06B009
:104EC80070470193204B22481A6B42F002021A6382
:104ED8001B6B03F002030193019BF0E702931A4B4B
:104EE8001C481A6B42F004021A631B6B03F004039C
:104EF8000293029BE3E70393134B17481A6B42F0A4
:104F080008021A631B6B03F008030393039BD6E79D
:104F180004930D4B11481A6B42F010021A631B6B75
:104F280003F010030493049BC9E70593064B0C4850
:104F38001A6B42F080021A631B6B03F0800305931F
:104F4800059BBCE70020BAE7003802400000024099
:104F58000004024000080240000C02400010024019
:104F6800001C0240FCF70EBF704708B5FCF7FEFEB8
:104F7800FCF7AFFFFFF7F8FF08BD00000B4BDA683E
:104F8800D2015EBFDA6842F08072DA60084B002214
:104F98005A601A6842F001021A6000BF00BF00BFE1
:104FA8005868B0FA80F04009704700BFF0ED00E0A3
:104FB800001000E008B5FFF7E1FFFCF7BDFE00F0C8
:104FC80015FDBDE8084000F05EBD30B5436891FAB4
:104FD800A1F4B4FA84F50124AC4023EA040391FA5D
:104FE800A1F1B1FA81F18A401343436030BD30B575
:104FF800C46891FAA1F3B3FA83F303255B0005FAB9
:1050080003F324EA030391FAA1F1B1FA81F149000B
:105018008A401343C36030BD431C04D00C3131F9BE
:105028000C3C5A1C01D100207047834201F10C014D
:10503800F5D101207047000000F00F02484B2DE920
:10504800F041C0F303141FFA80F8013053F82250DE
:105058000E4601F0070703D14248482100F0D8F86E
:105068002046FFF717FF8368044695FAA5F2B2FABF
:1050780082F20321520001FA02F223EA020195FAB0
:10508800A5F3B3FA83F35A00032393400B438360D9
:10509800032F35D8DFE807F01D1D021D18F0080F93
:1050A800C6F3062217D0406A2B0A93FAA3F1B1FA85
:1050B80081F14FF00F0C89000CFA01F120EA01018F
:1050C80093FAA3F3B3FA83F39B0002FA03F30B43B7
:1050D80063623B4619E0036A95FAA5F1B1FA81F1DA
:1050E8000F20890000FA01F123EA010195FAA5F3DE
:1050F800B3FA83F39B0002FA03F30B432362E8E756
:1051080018488D2100F084F80023216895FAA5F24B
:10511800B2FA82F20320520000FA02F221EA0201F6
:1051280095FAA5F2B2FA82F252009340013F0B437E
:10513800012F236007D816F0080218BF012229465C
:105148002046FFF742FFC6F30112012A02D0022AC5
:1051580018BF002229462046BDE8F041FFF747BFA7
:1051680068A0000804A00008431C06D170478342C9
:1051780002D18968FFF760BF0C31B1F900305A1CC1
:10518800F5D10248B92100F043B800BF04A00008D7
:10519800B1F900305A1C01D100207047834201D177
:1051A800486870470C31F3E7431C01D0FFF7F0BFA4
:1051B800002070474B6813B94FF0FF3070478342A7
:1051C80002D1B1F9000070470C31F3E708B1FFF7DD
:1051D800F1BF4FF0FF307047884204D018B1002962
:1051E8000CBF01460021084670470000034B1B68AE
:1051F80013B1034A10681847704700BF180600200B
:105208003C0600200148FEF7C7BE00BF1C06002070
:10521800FEE700000F49D1F8883043F47003C1F865
:1052280088300D4B1A68002042F001021A6098601D
:105238001A6822F0847222F480321A60074A5A608F
:105248001A6822F480221A60D8604FF000638B60DD
:10525800704700BF00ED00E0003802401030002425
:105268000438704703683F4A934288B01BD1002234
:1052780000923D4A516C41F001015164526C02F0B8
:1052880001020092009A394A93423FD100230593C4
:10529800354B5A6C42F480325A645B6C03F48033A9
:1052A8000593059B17E0B3F1804F16D0304A93421F
:1052B80020D0304A934239D02F4A9342E3D1002379
:1052C8000493294B1A6C42F008021A641B6C03F011
:1052D80008030493049B08B0704700220192224AF5
:1052E800116C41F001011164126C02F0010201928B
:1052F800019AC8E7002202921B4A116C41F0020190
:105308001164126C02F002020292029A1B4A934242
:1053180018D100230693144B5A6C42F400325A6495
:105328005B6C03F400330693069BD4E700220392D8
:105338000D4A116C41F004011164126C02F0040270
:105348000392039A0E4A9342C5D100230793064B52
:105358005A6C42F480225A645B6C03F480230793EE
:10536800079BB8E7000001400038024000400140B8
:105378000004004000080040000C004000440140C8
:10538800004801400368224A93420DD121494A6CE2
:1053980022F001024A64204A934222D11D4A536CEA
:1053A80023F4803353647047B3F1804F0ED01B4A07
:1053B800934211D01A4A93421BD01A4A9342EAD117
:1053C800144A136C23F008031364704711490A6CDC
:1053D80022F001020A64DEE70E490A6C22F002029A
:1053E8000A64114A934209D10A4A536C23F40033E0
:1053F800D8E708490A6C22F004020A640B4A93426F
:1054080000D07047034A536C23F48023CAE700BFD7
:105418000000014000380240004001400004004004
:1054280000080040000C00400044014000480140D2
:1054380008B5431C014611D0184B984224D010D807
:10544800A3F50063984221D003F5806398421FD0EA
:10545800B0F1804F1ED01248FFF7DAFE6FF00D0052
:1054680008BD104B984217D009D8A3F58843984235
:1054780012D003F580439842EDD11820F0E70A4B8B
:105488009842E8D11A20EBE73220E9E71D20E7E748
:105498001E20E5E71C20E3E71920E1E7000C0040A7
:1054A800C0A00008004401400048014008B5431C62
:1054B800014612D0194B984224D016D8A3F5784348
:1054C800984221D00CD8B0F1804F1FD0A3F580634B
:1054D80098421DD01248FFF79BFE6FF00D0008BDE3
:1054E800104B9842F6D13220F9E70F4B984211D071
:1054F80003F5806398420FD0A3F500639842E9D181
:105508001820ECE71B20EAE71E20E8E71C20E6E766
:105518001D20E4E71920E2E71A20E0E70000014037
:10552800C0A00008000C00400044014038B5044603
:10553800FFF798FE0068FFF77BFFD4E91012FCF72D
:105548004DFC2068FFF774FFFCF77AFC2068FFF732
:10555800ADFF05462068FFF76BFF85420DD0206838
:10556800FFF7A4FFD4E91012FCF738FC2068FFF716
:105578009DFFBDE83840FCF763BC38BD08B5074B54
:1055880090F8512053F82200FEF7AAFF00F02200FD
:10559800A0F122035842584108BD00BF4006002030
:1055A80008B5074B90F8512053F82200FEF798FFF2
:1055B80000F02100A0F121035842584108BD00BF66
:1055C8004006002010B50446E8B1816490F9500007
:1055D800FCF744FCA36DB4F8621094F8510013FA78
:1055E80081F1094B012253F82000FEF71CFE94F9C3
:1055F800500000220121FCF7F1FB94F95000BDE8AE
:105608001040FCF71DBC10BD4006002050B1B0F999
:105618004E30013306D190F85120034B53F8220045
:10562800FEF72EBF704700BF4006002050B1B0F90A
:105638004E30013306D190F85120034B53F8220025
:10564800FEF736BF704700BF40060020036C0438E1
:10565800184710B5436C04460438984701300AD0FF
:10566800B4F85E10636D20460122BDE8104013FABD
:1056780081F1FEF7D8BD10BD1FB503680446186850
:1056880010F0010013D0002200921A6800925B68A3
:105698000093009B201FFFF771FF40BB012204F11C
:1056A8004E01204604B0BDE81040FEF7DBBD196886
:1056B80011F0020106D001901A6801925B6801930B
:1056C800019BE7E71A6812F0040206D002911A68F3
:1056D80002925B680293029BDCE719680907D9D537
:1056E80003921A6803925B680393039BD2E704B0A2
:1056F80010BD000008B52520FCF7DAFB024B18683E
:10570800BDE80840FEF710BE4006002008B5262078
:10571800FCF7CEFB024B5868BDE80840FEF704BE14
:105728004006002008B54720FCF7C2FB024B9868EA
:10573800BDE80840FEF7F8BD4006002073B51549DE
:10574800154C0646FFF730FD00F046FA54F82030B5
:10575800054673B90F493046FFF726FD0190A8208A
:1057680000F010FC0199064600F08CFA54F8253038
:105778001E6054F825301C684CB1204600F062FACF
:10578800A821204602B0BDE8704000F0FDBB02B081
:1057980070BD00BF50A100088C070020836810B5B9
:1057A800044613B1032201469847204610BD000065
:1057B8000023012803F1010202D040081346F8E74C
:1057C8001421DBB24B43044A181D1044816811B1FF
:1057D8001A441369184770474C0600200120FCF74B
:1057E80091BB0220FCF78EBB0420FCF78BBB082082
:1057F800FCF788BB1020FCF785BB38B505242025AD
:10580800A8B2FCF77FFB013C4FEA4505F8D138BD4B
:1058180038B506244FF48065A8B2FCF773FB013C49
:105828004FEA4505F8D138BD204B072119750821E5
:1058380083F82810092183F83C100A21062283F8EE
:10584800501017211A7083F86410002283F878101A
:1058580083F88C1083F8A01083F8B4102821DA603C
:105868001A625A639A64DA651A67C3F88420C3F81F
:105878009820C3F8AC20C3F8C02083F8C810C3F838
:10588800D42083F8DC10C3F8E82083F8F010C3F8BC
:10589800FC2083F80411C3F8102183F81811C3F809
:1058A800242183F82C11C3F8382170474C060020B6
:1058B80038B5054CA4F5A075143C201DFFF76EFF04
:1058C800AC42F9D138BD00BF8C0700207FB50F224C
:1058D8000223CDE90123032100234FF4805201A8BC
:1058E800CDE903320593FEF7A5FAB0FA80F0400936
:1058F80007B05DF804FB000010B58EB01C4B002407
:1059080000941A6C42F080521A641B6C194A03F016
:1059180080530093009B0194136823F4404343F49D
:1059280000431360136803F440430193A042019BB2
:105938004FF0010302930CBF4FF480334FF4A023C0
:105948004FF4800203930223CDE908321921C022C3
:105958000C9302A80423CDE90A120D93FEF794F8DC
:1059680018B9FFF7B3FF0EB010BD2046FBE700BF24
:10597800003802400070004010B58EB00024194B6A
:1059880000941A6C42F080521A641B6C164A03F099
:1059980080530093009B0194136823F4404343F41D
:1059A800004313601368039403F440430193019B7D
:1059B80003231022029301230593069202230A92DD
:1059C800C022CDE90834CDE90B2302A804230D93A6
:1059D800FEF75AF818B9FFF779FF0EB010BD204648
:1059E800FBE700BF003802400070004008B5002007
:1059F800FFF782FF60B90120FFF77EFF40B9FFF78C
:105A0800BBFF28B9BDE808400248CF21FFF700BC1A
:105A180008BD00BF3CA30008DFF834D0002103E034
:105A28000C4B5B58435004310B480C4B42189A42BC
:105A3800F6D30B4A02E0002342F8043B094B9A4292
:105A4800F9D3FFF7E7FB01F087FE00F091FA704702
:105A5800000002201CA90008000000207803002094
:105A68007803002018120020FEE708B54FF0A04088
:105A7800FFF78EF90A2000F095F8BDE808404FF0CE
:105A8800A040FFF779B900F0D7BA000023282DE924
:105A9800F0410E4627D8254B33F91040621C42D0FE
:105AA800234DC4F3031704F00F0855F8273023FAE1
:105AB80008F3DB0710D51F492046FFF7ADFA10B1F0
:105AC8002046FFF73BFE012303FA08F255F827307A
